{
  "_format": "hh-sol-artifact-1",
  "contractName": "NFTMarketplace",
  "sourceName": "contracts/NFTMarketplace.sol",
  "abi": [
    {
      "inputs": [],
      "stateMutability": "nonpayable",
      "type": "constructor"
    },
    {
      "anonymous": false,
      "inputs": [
        {
          "indexed": true,
          "internalType": "address",
          "name": "owner",
          "type": "address"
        },
        {
          "indexed": true,
          "internalType": "address",
          "name": "approved",
          "type": "address"
        },
        {
          "indexed": true,
          "internalType": "uint256",
          "name": "tokenId",
          "type": "uint256"
        }
      ],
      "name": "Approval",
      "type": "event"
    },
    {
      "anonymous": false,
      "inputs": [
        {
          "indexed": true,
          "internalType": "address",
          "name": "owner",
          "type": "address"
        },
        {
          "indexed": true,
          "internalType": "address",
          "name": "operator",
          "type": "address"
        },
        {
          "indexed": false,
          "internalType": "bool",
          "name": "approved",
          "type": "bool"
        }
      ],
      "name": "ApprovalForAll",
      "type": "event"
    },
    {
      "anonymous": false,
      "inputs": [
        {
          "indexed": true,
          "internalType": "address",
          "name": "from",
          "type": "address"
        },
        {
          "indexed": true,
          "internalType": "address",
          "name": "to",
          "type": "address"
        },
        {
          "indexed": true,
          "internalType": "uint256",
          "name": "tokenId",
          "type": "uint256"
        }
      ],
      "name": "Transfer",
      "type": "event"
    },
    {
      "inputs": [
        {
          "internalType": "address",
          "name": "to",
          "type": "address"
        },
        {
          "internalType": "uint256",
          "name": "tokenId",
          "type": "uint256"
        }
      ],
      "name": "approve",
      "outputs": [],
      "stateMutability": "nonpayable",
      "type": "function"
    },
    {
      "inputs": [
        {
          "internalType": "address",
          "name": "owner",
          "type": "address"
        }
      ],
      "name": "balanceOf",
      "outputs": [
        {
          "internalType": "uint256",
          "name": "",
          "type": "uint256"
        }
      ],
      "stateMutability": "view",
      "type": "function"
    },
    {
      "inputs": [
        {
          "internalType": "string",
          "name": "tokenURI",
          "type": "string"
        },
        {
          "internalType": "uint256",
          "name": "prices",
          "type": "uint256"
        }
      ],
      "name": "createToken",
      "outputs": [
        {
          "internalType": "uint256",
          "name": "",
          "type": "uint256"
        }
      ],
      "stateMutability": "payable",
      "type": "function"
    },
    {
      "inputs": [],
      "name": "getAllnfts",
      "outputs": [
        {
          "components": [
            {
              "internalType": "uint256",
              "name": "tokenId",
              "type": "uint256"
            },
            {
              "internalType": "address payable",
              "name": "owner",
              "type": "address"
            },
            {
              "internalType": "address payable",
              "name": "seller",
              "type": "address"
            },
            {
              "internalType": "uint256",
              "name": "price",
              "type": "uint256"
            },
            {
              "internalType": "bool",
              "name": "currentlyListed",
              "type": "bool"
            }
          ],
          "internalType": "struct NFTMarketplace.TokensListed[]",
          "name": "",
          "type": "tuple[]"
        }
      ],
      "stateMutability": "view",
      "type": "function"
    },
    {
      "inputs": [
        {
          "internalType": "uint256",
          "name": "tokenId",
          "type": "uint256"
        }
      ],
      "name": "getApproved",
      "outputs": [
        {
          "internalType": "address",
          "name": "",
          "type": "address"
        }
      ],
      "stateMutability": "view",
      "type": "function"
    },
    {
      "inputs": [],
      "name": "getCurrentToken",
      "outputs": [
        {
          "internalType": "uint256",
          "name": "",
          "type": "uint256"
        }
      ],
      "stateMutability": "view",
      "type": "function"
    },
    {
      "inputs": [
        {
          "internalType": "uint256",
          "name": "_tokenId",
          "type": "uint256"
        }
      ],
      "name": "getListPrice",
      "outputs": [
        {
          "internalType": "uint256",
          "name": "",
          "type": "uint256"
        }
      ],
      "stateMutability": "view",
      "type": "function"
    },
    {
      "inputs": [
        {
          "internalType": "uint256",
          "name": "_tokenId",
          "type": "uint256"
        }
      ],
      "name": "getListedForToken",
      "outputs": [
        {
          "internalType": "bool",
          "name": "",
          "type": "bool"
        }
      ],
      "stateMutability": "view",
      "type": "function"
    },
    {
      "inputs": [],
      "name": "getNfts",
      "outputs": [
        {
          "components": [
            {
              "internalType": "uint256",
              "name": "tokenId",
              "type": "uint256"
            },
            {
              "internalType": "address payable",
              "name": "owner",
              "type": "address"
            },
            {
              "internalType": "address payable",
              "name": "seller",
              "type": "address"
            },
            {
              "internalType": "uint256",
              "name": "price",
              "type": "uint256"
            },
            {
              "internalType": "bool",
              "name": "currentlyListed",
              "type": "bool"
            }
          ],
          "internalType": "struct NFTMarketplace.TokensListed[]",
          "name": "",
          "type": "tuple[]"
        }
      ],
      "stateMutability": "view",
      "type": "function"
    },
    {
      "inputs": [
        {
          "internalType": "uint256",
          "name": "_tokenId",
          "type": "uint256"
        }
      ],
      "name": "getTokenListed",
      "outputs": [
        {
          "components": [
            {
              "internalType": "uint256",
              "name": "tokenId",
              "type": "uint256"
            },
            {
              "internalType": "address payable",
              "name": "owner",
              "type": "address"
            },
            {
              "internalType": "address payable",
              "name": "seller",
              "type": "address"
            },
            {
              "internalType": "uint256",
              "name": "price",
              "type": "uint256"
            },
            {
              "internalType": "bool",
              "name": "currentlyListed",
              "type": "bool"
            }
          ],
          "internalType": "struct NFTMarketplace.TokensListed",
          "name": "",
          "type": "tuple"
        }
      ],
      "stateMutability": "view",
      "type": "function"
    },
    {
      "inputs": [
        {
          "internalType": "address",
          "name": "owner",
          "type": "address"
        },
        {
          "internalType": "address",
          "name": "operator",
          "type": "address"
        }
      ],
      "name": "isApprovedForAll",
      "outputs": [
        {
          "internalType": "bool",
          "name": "",
          "type": "bool"
        }
      ],
      "stateMutability": "view",
      "type": "function"
    },
    {
      "inputs": [],
      "name": "name",
      "outputs": [
        {
          "internalType": "string",
          "name": "",
          "type": "string"
        }
      ],
      "stateMutability": "view",
      "type": "function"
    },
    {
      "inputs": [
        {
          "internalType": "uint256",
          "name": "tokenId",
          "type": "uint256"
        }
      ],
      "name": "ownerOf",
      "outputs": [
        {
          "internalType": "address",
          "name": "",
          "type": "address"
        }
      ],
      "stateMutability": "view",
      "type": "function"
    },
    {
      "inputs": [
        {
          "internalType": "address",
          "name": "from",
          "type": "address"
        },
        {
          "internalType": "address",
          "name": "to",
          "type": "address"
        },
        {
          "internalType": "uint256",
          "name": "tokenId",
          "type": "uint256"
        }
      ],
      "name": "safeTransferFrom",
      "outputs": [],
      "stateMutability": "nonpayable",
      "type": "function"
    },
    {
      "inputs": [
        {
          "internalType": "address",
          "name": "from",
          "type": "address"
        },
        {
          "internalType": "address",
          "name": "to",
          "type": "address"
        },
        {
          "internalType": "uint256",
          "name": "tokenId",
          "type": "uint256"
        },
        {
          "internalType": "bytes",
          "name": "data",
          "type": "bytes"
        }
      ],
      "name": "safeTransferFrom",
      "outputs": [],
      "stateMutability": "nonpayable",
      "type": "function"
    },
    {
      "inputs": [
        {
          "internalType": "uint256",
          "name": "tokenId",
          "type": "uint256"
        }
      ],
      "name": "sale",
      "outputs": [],
      "stateMutability": "payable",
      "type": "function"
    },
    {
      "inputs": [
        {
          "internalType": "address",
          "name": "operator",
          "type": "address"
        },
        {
          "internalType": "bool",
          "name": "approved",
          "type": "bool"
        }
      ],
      "name": "setApprovalForAll",
      "outputs": [],
      "stateMutability": "nonpayable",
      "type": "function"
    },
    {
      "inputs": [
        {
          "internalType": "bytes4",
          "name": "interfaceId",
          "type": "bytes4"
        }
      ],
      "name": "supportsInterface",
      "outputs": [
        {
          "internalType": "bool",
          "name": "",
          "type": "bool"
        }
      ],
      "stateMutability": "view",
      "type": "function"
    },
    {
      "inputs": [],
      "name": "symbol",
      "outputs": [
        {
          "internalType": "string",
          "name": "",
          "type": "string"
        }
      ],
      "stateMutability": "view",
      "type": "function"
    },
    {
      "inputs": [
        {
          "internalType": "uint256",
          "name": "tokenId",
          "type": "uint256"
        }
      ],
      "name": "tokenURI",
      "outputs": [
        {
          "internalType": "string",
          "name": "",
          "type": "string"
        }
      ],
      "stateMutability": "view",
      "type": "function"
    },
    {
      "inputs": [
        {
          "internalType": "address",
          "name": "from",
          "type": "address"
        },
        {
          "internalType": "address",
          "name": "to",
          "type": "address"
        },
        {
          "internalType": "uint256",
          "name": "tokenId",
          "type": "uint256"
        }
      ],
      "name": "transferFrom",
      "outputs": [],
      "stateMutability": "nonpayable",
      "type": "function"
    },
    {
      "inputs": [
        {
          "internalType": "uint256",
          "name": "_tokenId",
          "type": "uint256"
        },
        {
          "internalType": "uint256",
          "name": "_listPrice",
          "type": "uint256"
        }
      ],
      "name": "update",
      "outputs": [],
      "stateMutability": "payable",
      "type": "function"
    }
  ],
  "bytecode": "0x6080604052662386f26fc10000600a553480156200001c57600080fd5b506040518060400160405280600e81526020016d4e46546d61726b6574706c61636560901b8152506040518060400160405280600381526020016213919560ea1b815250816000908162000071919062000140565b50600162000080828262000140565b5050600780546001600160a01b03191633179055506200020c565b634e487b7160e01b600052604160045260246000fd5b600181811c90821680620000c657607f821691505b602082108103620000e757634e487b7160e01b600052602260045260246000fd5b50919050565b601f8211156200013b57600081815260208120601f850160051c81016020861015620001165750805b601f850160051c820191505b81811015620001375782815560010162000122565b5050505b505050565b81516001600160401b038111156200015c576200015c6200009b565b62000174816200016d8454620000b1565b84620000ed565b602080601f831160018114620001ac5760008415620001935750858301515b600019600386901b1c1916600185901b17855562000137565b600085815260208120601f198616915b82811015620001dd57888601518255948401946001909101908401620001bc565b5085821015620001fc5787850151600019600388901b60f8161c191681555b5050505050600190811b01905550565b61203d806200021c6000396000f3fe6080604052600436106101355760003560e01c806372b3b620116100ab578063b42f97b91161006f578063b42f97b91461036c578063b88d4fde14610421578063c87b56dd14610441578063d8cb55e314610461578063e985e9c514610476578063ef2d1746146104bf57600080fd5b806372b3b620146102ef57806395d89b411461030257806396032702146103175780639c00b3891461032a578063a22cb4651461034c57600080fd5b8063277f8145116100fd578063277f81451461020b5780632d68a76c1461023e5780632fb565e81461027c57806342842e0e1461028f5780636352211e146102af57806370a08231146102cf57600080fd5b806301ffc9a71461013a57806306fdde031461016f578063081812fc14610191578063095ea7b3146101c957806323b872dd146101eb575b600080fd5b34801561014657600080fd5b5061015a610155366004611936565b6104d4565b60405190151581526020015b60405180910390f35b34801561017b57600080fd5b50610184610526565b60405161016691906119a3565b34801561019d57600080fd5b506101b16101ac3660046119b6565b6105b8565b6040516001600160a01b039091168152602001610166565b3480156101d557600080fd5b506101e96101e43660046119eb565b6105df565b005b3480156101f757600080fd5b506101e9610206366004611a15565b6106f9565b34801561021757600080fd5b5061015a6102263660046119b6565b6000908152600b602052604090206004015460ff1690565b34801561024a57600080fd5b5061026e6102593660046119b6565b6000908152600b602052604090206003015490565b604051908152602001610166565b6101e961028a366004611a51565b61072a565b34801561029b57600080fd5b506101e96102aa366004611a15565b610791565b3480156102bb57600080fd5b506101b16102ca3660046119b6565b6107ac565b3480156102db57600080fd5b5061026e6102ea366004611a73565b61080c565b61026e6102fd366004611b1a565b610892565b34801561030e57600080fd5b5061018461095e565b6101e96103253660046119b6565b61096d565b34801561033657600080fd5b5061033f610a91565b6040516101669190611bb3565b34801561035857600080fd5b506101e9610367366004611c01565b610bdc565b34801561037857600080fd5b506104146103873660046119b6565b6040805160a081018252600080825260208201819052918101829052606081018290526080810191909152506000908152600b6020908152604091829020825160a0810184528154815260018201546001600160a01b03908116938201939093526002820154909216928201929092526003820154606082015260049091015460ff161515608082015290565b6040516101669190611c3d565b34801561042d57600080fd5b506101e961043c366004611c4b565b610beb565b34801561044d57600080fd5b5061018461045c3660046119b6565b610c1d565b34801561046d57600080fd5b5061033f610d2d565b34801561048257600080fd5b5061015a610491366004611cc7565b6001600160a01b03918216600090815260056020908152604080832093909416825291909152205460ff1690565b3480156104cb57600080fd5b5061026e610f76565b60006001600160e01b031982166380ac58cd60e01b148061050557506001600160e01b03198216635b5e139f60e01b145b8061052057506301ffc9a760e01b6001600160e01b03198316145b92915050565b60606000805461053590611cfa565b80601f016020809104026020016040519081016040528092919081815260200182805461056190611cfa565b80156105ae5780601f10610583576101008083540402835291602001916105ae565b820191906000526020600020905b81548152906001019060200180831161059157829003601f168201915b5050505050905090565b60006105c382610f86565b506000908152600460205260409020546001600160a01b031690565b60006105ea826107ac565b9050806001600160a01b0316836001600160a01b03160361065c5760405162461bcd60e51b815260206004820152602160248201527f4552433732313a20617070726f76616c20746f2063757272656e74206f776e656044820152603960f91b60648201526084015b60405180910390fd5b336001600160a01b038216148061067857506106788133610491565b6106ea5760405162461bcd60e51b815260206004820152603d60248201527f4552433732313a20617070726f76652063616c6c6572206973206e6f7420746f60448201527f6b656e206f776e6572206f7220617070726f76656420666f7220616c6c0000006064820152608401610653565b6106f48383610fe8565b505050565b6107033382611056565b61071f5760405162461bcd60e51b815260040161065390611d34565b6106f48383836110d4565b6007546001600160a01b0316331461077c5760405162461bcd60e51b81526020600482015260156024820152744f6e6c79206f776e65722063616e206d6f6469667960581b6044820152606401610653565b6000918252600b602052604090912060030155565b6106f483838360405180602001604052806000815250610beb565b6000818152600260205260408120546001600160a01b0316806105205760405162461bcd60e51b8152602060048201526018602482015277115490cdcc8c4e881a5b9d985b1a59081d1bdad95b88125160421b6044820152606401610653565b60006001600160a01b0382166108765760405162461bcd60e51b815260206004820152602960248201527f4552433732313a2061646472657373207a65726f206973206e6f7420612076616044820152683634b21037bbb732b960b91b6064820152608401610653565b506001600160a01b031660009081526003602052604090205490565b60008134146108dc5760405162461bcd60e51b81526020600482015260166024820152754e6f7420657175616c20746f206c697374507269636560501b6044820152606401610653565b6000821161091c5760405162461bcd60e51b815260206004820152600d60248201526c496e76616c696420507269636560981b6044820152606401610653565b61092a600880546001019055565b600061093560085490565b90506109413382611238565b61094b8185611252565b61095781600a546112e5565b9392505050565b60606001805461053590611cfa565b6000818152600b60205260409020600301543481146109bc5760405162461bcd60e51b815260206004820152600b60248201526a13195cdcc8185b5bdd5b9d60aa1b6044820152606401610653565b6000828152600b602052604090206002810180546004909201805460ff191660011790556001600160a01b03198216331790556001600160a01b0316610a06600980546001019055565b610a113033856110d4565b610a1b30846105df565b6007546040516001600160a01b039091169083156108fc029084906000818181858888f19350505050158015610a55573d6000803e3d6000fd5b506040516001600160a01b038216903480156108fc02916000818181858888f19350505050158015610a8b573d6000803e3d6000fd5b50505050565b60606000610a9e60085490565b905060008167ffffffffffffffff811115610abb57610abb611a8e565b604051908082528060200260200182016040528015610b1457816020015b6040805160a081018252600080825260208083018290529282018190526060820181905260808201528252600019909201910181610ad95790505b5090506000805b83811015610bd3576000610b30826001611d97565b6000818152600b6020908152604091829020825160a0810184528154815260018201546001600160a01b039081169382019390935260028201549092169282019290925260038201546060820152600482015460ff161515608082015286519293509091869086908110610ba657610ba6611daa565b6020908102919091010152610bbc600185611d97565b935050508080610bcb90611dc0565b915050610b1b565b50909392505050565b610be7338383611382565b5050565b610bf53383611056565b610c115760405162461bcd60e51b815260040161065390611d34565b610a8b84848484611450565b6060610c2882610f86565b60008281526006602052604081208054610c4190611cfa565b80601f0160208091040260200160405190810160405280929190818152602001828054610c6d90611cfa565b8015610cba5780601f10610c8f57610100808354040283529160200191610cba565b820191906000526020600020905b815481529060010190602001808311610c9d57829003601f168201915b505050505090506000610cd860408051602081019091526000815290565b90508051600003610cea575092915050565b815115610d1c578082604051602001610d04929190611dd9565b60405160208183030381529060405292505050919050565b610d2584611483565b949350505050565b60606000610d3a60085490565b905060008060005b83811015610dd25733600b6000610d5a846001611d97565b81526020810191909152604001600020600101546001600160a01b03161480610dad575033600b6000610d8e846001611d97565b81526020810191909152604001600020600201546001600160a01b0316145b15610dc057610dbd600184611d97565b92505b80610dca81611dc0565b915050610d42565b5060008367ffffffffffffffff811115610dee57610dee611a8e565b604051908082528060200260200182016040528015610e4757816020015b6040805160a081018252600080825260208083018290529282018190526060820181905260808201528252600019909201910181610e0c5790505b50905060005b84811015610f6d5733600b6000610e65846001611d97565b81526020810191909152604001600020600101546001600160a01b03161480610eb8575033600b6000610e99846001611d97565b81526020810191909152604001600020600201546001600160a01b0316145b15610f5b576000610eca826001611d97565b6000818152600b6020908152604091829020825160a0810184528154815260018201546001600160a01b039081169382019390935260028201549092169282019290925260038201546060820152600482015460ff161515608082015285519293509091859087908110610f4057610f40611daa565b6020908102919091010152610f56600186611d97565b945050505b80610f6581611dc0565b915050610e4d565b50949350505050565b6000610f8160085490565b905090565b6000818152600260205260409020546001600160a01b0316610fe55760405162461bcd60e51b8152602060048201526018602482015277115490cdcc8c4e881a5b9d985b1a59081d1bdad95b88125160421b6044820152606401610653565b50565b600081815260046020526040902080546001600160a01b0319166001600160a01b038416908117909155819061101d826107ac565b6001600160a01b03167f8c5be1e5ebec7d5bd14f71427d1e84f3dd0314c0f7b2291e5b200ac8c7c3b92560405160405180910390a45050565b600080611062836107ac565b9050806001600160a01b0316846001600160a01b031614806110a957506001600160a01b0380821660009081526005602090815260408083209388168352929052205460ff165b80610d255750836001600160a01b03166110c2846105b8565b6001600160a01b031614949350505050565b826001600160a01b03166110e7826107ac565b6001600160a01b03161461110d5760405162461bcd60e51b815260040161065390611e08565b6001600160a01b03821661116f5760405162461bcd60e51b8152602060048201526024808201527f4552433732313a207472616e7366657220746f20746865207a65726f206164646044820152637265737360e01b6064820152608401610653565b826001600160a01b0316611182826107ac565b6001600160a01b0316146111a85760405162461bcd60e51b815260040161065390611e08565b600081815260046020908152604080832080546001600160a01b03199081169091556001600160a01b0387811680865260038552838620805460001901905590871680865283862080546001019055868652600290945282852080549092168417909155905184937fddf252ad1be2c89b69c2b068fc378daa952ba7f163c4a11628f55a4df523b3ef91a4505050565b610be78282604051806020016040528060008152506114f6565b6000828152600260205260409020546001600160a01b03166112cd5760405162461bcd60e51b815260206004820152602e60248201527f45524337323155524953746f726167653a2055524920736574206f66206e6f6e60448201526d32bc34b9ba32b73a103a37b5b2b760911b6064820152608401610653565b60008281526006602052604090206106f48282611e9b565b6040805160a081018252838152306020808301828152338486018181526060860188815260016080880181815260008c8152600b9097529890952096518755925193860180546001600160a01b039586166001600160a01b03199182161790915590516002870180549190951691161790925551600384015592516004909201805492151560ff1990931692909217909155610be79190846110d4565b816001600160a01b0316836001600160a01b0316036113e35760405162461bcd60e51b815260206004820152601960248201527f4552433732313a20617070726f766520746f2063616c6c6572000000000000006044820152606401610653565b6001600160a01b03838116600081815260056020908152604080832094871680845294825291829020805460ff191686151590811790915591519182527f17307eab39ab6107e8899845ad3d59bd9653f200f220920489ca2b5937696c31910160405180910390a3505050565b61145b8484846110d4565b61146784848484611529565b610a8b5760405162461bcd60e51b815260040161065390611f5b565b606061148e82610f86565b60006114a560408051602081019091526000815290565b905060008151116114c55760405180602001604052806000815250610957565b806114cf8461162a565b6040516020016114e0929190611dd9565b6040516020818303038152906040529392505050565b61150083836116bd565b61150d6000848484611529565b6106f45760405162461bcd60e51b815260040161065390611f5b565b60006001600160a01b0384163b1561161f57604051630a85bd0160e11b81526001600160a01b0385169063150b7a029061156d903390899088908890600401611fad565b6020604051808303816000875af19250505080156115a8575060408051601f3d908101601f191682019092526115a591810190611fea565b60015b611605573d8080156115d6576040519150601f19603f3d011682016040523d82523d6000602084013e6115db565b606091505b5080516000036115fd5760405162461bcd60e51b815260040161065390611f5b565b805181602001fd5b6001600160e01b031916630a85bd0160e11b149050610d25565b506001949350505050565b6060600061163783611848565b600101905060008167ffffffffffffffff81111561165757611657611a8e565b6040519080825280601f01601f191660200182016040528015611681576020820181803683370190505b5090508181016020015b600019016f181899199a1a9b1b9c1cb0b131b232b360811b600a86061a8153600a850494508461168b57509392505050565b6001600160a01b0382166117135760405162461bcd60e51b815260206004820181905260248201527f4552433732313a206d696e7420746f20746865207a65726f20616464726573736044820152606401610653565b6000818152600260205260409020546001600160a01b0316156117785760405162461bcd60e51b815260206004820152601c60248201527f4552433732313a20746f6b656e20616c7265616479206d696e746564000000006044820152606401610653565b6000818152600260205260409020546001600160a01b0316156117dd5760405162461bcd60e51b815260206004820152601c60248201527f4552433732313a20746f6b656e20616c7265616479206d696e746564000000006044820152606401610653565b6001600160a01b038216600081815260036020908152604080832080546001019055848352600290915280822080546001600160a01b0319168417905551839291907fddf252ad1be2c89b69c2b068fc378daa952ba7f163c4a11628f55a4df523b3ef908290a45050565b60008072184f03e93ff9f4daa797ed6e38ed64bf6a1f0160401b83106118875772184f03e93ff9f4daa797ed6e38ed64bf6a1f0160401b830492506040015b6d04ee2d6d415b85acef810000000083106118b3576d04ee2d6d415b85acef8100000000830492506020015b662386f26fc1000083106118d157662386f26fc10000830492506010015b6305f5e10083106118e9576305f5e100830492506008015b61271083106118fd57612710830492506004015b6064831061190f576064830492506002015b600a83106105205760010192915050565b6001600160e01b031981168114610fe557600080fd5b60006020828403121561194857600080fd5b813561095781611920565b60005b8381101561196e578181015183820152602001611956565b50506000910152565b6000815180845261198f816020860160208601611953565b601f01601f19169290920160200192915050565b6020815260006109576020830184611977565b6000602082840312156119c857600080fd5b5035919050565b80356001600160a01b03811681146119e657600080fd5b919050565b600080604083850312156119fe57600080fd5b611a07836119cf565b946020939093013593505050565b600080600060608486031215611a2a57600080fd5b611a33846119cf565b9250611a41602085016119cf565b9150604084013590509250925092565b60008060408385031215611a6457600080fd5b50508035926020909101359150565b600060208284031215611a8557600080fd5b610957826119cf565b634e487b7160e01b600052604160045260246000fd5b600067ffffffffffffffff80841115611abf57611abf611a8e565b604051601f8501601f19908116603f01168101908282118183101715611ae757611ae7611a8e565b81604052809350858152868686011115611b0057600080fd5b858560208301376000602087830101525050509392505050565b60008060408385031215611b2d57600080fd5b823567ffffffffffffffff811115611b4457600080fd5b8301601f81018513611b5557600080fd5b611b6485823560208401611aa4565b95602094909401359450505050565b805182526020808201516001600160a01b039081169184019190915260408083015190911690830152606080820151908301526080908101511515910152565b6020808252825182820181905260009190848201906040850190845b81811015611bf557611be2838551611b73565b9284019260a09290920191600101611bcf565b50909695505050505050565b60008060408385031215611c1457600080fd5b611c1d836119cf565b915060208301358015158114611c3257600080fd5b809150509250929050565b60a081016105208284611b73565b60008060008060808587031215611c6157600080fd5b611c6a856119cf565b9350611c78602086016119cf565b925060408501359150606085013567ffffffffffffffff811115611c9b57600080fd5b8501601f81018713611cac57600080fd5b611cbb87823560208401611aa4565b91505092959194509250565b60008060408385031215611cda57600080fd5b611ce3836119cf565b9150611cf1602084016119cf565b90509250929050565b600181811c90821680611d0e57607f821691505b602082108103611d2e57634e487b7160e01b600052602260045260246000fd5b50919050565b6020808252602d908201527f4552433732313a2063616c6c6572206973206e6f7420746f6b656e206f776e6560408201526c1c881bdc88185c1c1c9bdd9959609a1b606082015260800190565b634e487b7160e01b600052601160045260246000fd5b8082018082111561052057610520611d81565b634e487b7160e01b600052603260045260246000fd5b600060018201611dd257611dd2611d81565b5060010190565b60008351611deb818460208801611953565b835190830190611dff818360208801611953565b01949350505050565b60208082526025908201527f4552433732313a207472616e736665722066726f6d20696e636f72726563742060408201526437bbb732b960d91b606082015260800190565b601f8211156106f457600081815260208120601f850160051c81016020861015611e745750805b601f850160051c820191505b81811015611e9357828155600101611e80565b505050505050565b815167ffffffffffffffff811115611eb557611eb5611a8e565b611ec981611ec38454611cfa565b84611e4d565b602080601f831160018114611efe5760008415611ee65750858301515b600019600386901b1c1916600185901b178555611e93565b600085815260208120601f198616915b82811015611f2d57888601518255948401946001909101908401611f0e565b5085821015611f4b5787850151600019600388901b60f8161c191681555b5050505050600190811b01905550565b60208082526032908201527f4552433732313a207472616e7366657220746f206e6f6e20455243373231526560408201527131b2b4bb32b91034b6b83632b6b2b73a32b960711b606082015260800190565b6001600160a01b0385811682528416602082015260408101839052608060608201819052600090611fe090830184611977565b9695505050505050565b600060208284031215611ffc57600080fd5b81516109578161192056fea2646970667358221220c8c28955e189ec346bf7d48de47f572f23b58f3f4581bf9b79483bb9a8657f3d64736f6c63430008120033",
  "linkReferences": {},
  "deployedLinkReferences": {}
}